:020000040800F2
:10000000480A002001010008C1170008C9160008AD
:10001000BD17000879040008A91D000800000000B1
:10002000000000000000000000000000211800088F
:10003000B904000800000000F11700085518000876
:100040001B0100081B0100081B0100081B01000820
:100050001B0100081B0100081B0100081B01000810
:100060001B0100081B0100081B0100081B01000800
:100070001B0100081B0100081B0100087D0400088B
:100080001B0100081B0100081B0100081B010008E0
:100090001B0100081B0100081B0100081B010008D0
:1000A0001B0100081B0100081B0100081B010008C0
:1000B0001B0100081B0100081B0100081B010008B0
:1000C0001B0100081B0100081B0100081B010008A0
:1000D0001B010008111D0008991D00081B010008E4
:1000E0001B0100081B0100081B010008DFF80CD0F1
:1000F00000F0B0F900480047211F0008480A00201E
:100100000648804706480047FEE7FEE7FEE7FEE7B1
:10011000FEE7FEE7FEE7FEE7FEE7FEE7BD180008A4
:10012000ED00000840EA01039B0703D009E008C97D
:10013000121F08C0042AFAD203E011F8013B00F8AC
:10014000013B521EF9D27047D2B201E000F8012BF8
:10015000491EFBD270470022F6E710B513460A4647
:1001600004461946FFF7F0FF204610BD30B504469F
:100170000020034600E05B1C934203D2E05CCD5CB0
:10018000401BF8D030BDF0B480EA0102D40F420029
:10019000B2EB410F02D20246084611464A0042D055
:1001A000C30DDDB2C1F3C752AD1A202D35DAC1F34C
:1001B000160141F4000204B15242C5F1200602FAD0
:1001C00006F12A411044B3EBD05F23D0C4B1012D16
:1001D000A0EBC35009DCF0BC4FF0004202EAC3526E
:1001E000DBB200F5000000F0EBB8400000F18070D9
:1001F00000EBC350A0F1807040EAD170490009E0E3
:10020000490841EAC071A0EBC35000F50000400866
:1002100000EBC350F0BC00F0CAB86142012202EB0F
:100220004101001BF6E7F0BC704781F00041AAE7EE
:1002300080F00040A7E780EA010210B502F0004319
:10024000400022D04A001FD0010E01EB1261C0F322
:100250005600C2F3560240F4000042F40002A0FB34
:10026000022000047F39140400D0401C50EA1240E0
:1002700001D44000491EC2B20C0604EBD010401C51
:100280004008802A02D003E0002010BD20F00100C9
:10029000002900DA0020184310BD30B480EA0102C2
:1002A00002F0004530F0004221F0004013D090B140
:1002B000C30DD40DC2F31601C0F31600E41A41F4C5
:1002C000000140F400027D34914201D3641C00E03F
:1002D0004900002C02DA30BC002070474FF40000C7
:1002E0000023914201D3891A034340084FEA410198
:1002F000F7D151B1914202D14FF0004105E002D255
:100300004FF0010101E06FF0010103EBC4502844FC
:1003100030BC00F04CB8002801DBC0F100400029DF
:1003200001DBC1F10041814201D80120704700206A
:100330007047002801DBC0F10040002901DBC1F15A
:100340000041814201D301207047002070470028FE
:1003500001DBC0F10040002901DBC1F10041814215
:1003600001D90120704700207047C10F80EAE0707A
:100370000844CA079623002100F022B800F000428A
:1003800020F00040C10DC0F3160040F400007F29AA
:1003900001DA00207047962903DCC1F19601C840BC
:1003A00001E096398840002AF4D040427047002985
:1003B000A8BF7047401C490008BF20F001007047EB
:1003C00010B4B0FA80FC00FA0CF050EA010404BF4B
:1003D00010BC704749B1CCF1200421FA04F411FAA1
:1003E0000CF118BF012121430843A3EB0C01CB1DE5
:1003F0004FEA00614FEA102042BF002010BC704756
:1004000000EBC35010440029A4BF10BC7047401C2F
:10041000490008BF20F0010010BC7047002801DB34
:10042000C0F10040002901DBC1F10041814202D24C
:100430004FF0004004E04FF0005001D14FF0C040B9
:10044000EFF3008121F07F4141EA000181F3008850
:1004500070470000064C074D06E0E06840F00103DD
:1004600094E8070098471034AC42F6D3FFF742FEF9
:10047000603C0008803C0008FEE7000080B540F2C8
:100480005000C2F2000000F097F880BDB0B5D0E98E
:1004900000CED0E90F40012505FA00F06060084663
:1004A000CCF80430BEF1100F04BF10460A46CCF859
:1004B0000800CCF80C20B0BD70470000EFF31080AE
:1004C00072B600BFFEE70000014690F82100022846
:1004D00013D10868D1E90FC3026822F00E0202604E
:1004E000026822F001020260012000FA03F2CCF857
:1004F000042081F82100002002E00420886301200C
:10050000002281F82020704780B590F82110022940
:1005100023D10268116821F00E0111602F211368A8
:10052000C4F202018A4240F20401C4F2020123F043
:100530000103136016DD3023C4F202039A421DD07A
:100540004423C4F202039A421BD05823C4F202038C
:100550009A421BD14FF4803320E0042181630121B2
:10056000084680BD0823C4F202039A420CD01C2323
:10057000C4F202039A4209D110230FE04FF48073B2
:100580000CE04FF4805309E0012307E001F1680C0F
:100590004FF08073624508BF4FF480130B60012158
:1005A00080F82110426B002180F820100AB190479A
:1005B0000021084680BD000010B50168D0E90FCECB
:1005C000DCF800200B685C0727D5042404FA0EF43D
:1005D000144022D00A68920603D40A6822F004026A
:1005E0000A6002682F21C4F202018A4240F204012B
:1005F000C4F202015ADD3023C4F202039A426DD0E4
:100600004423C4F202039A426BD05823C4F202037B
:100610009A426BD14FF4802370E09C072AD50224C4
:1006200004FA0EF4144025D00A68920606D40A682B
:1006300022F00A020A60012180F8211002682F21AD
:10064000C4F202018A4240F20401C4F2020139DD1F
:100650003023C4F202039A4256D04423C4F2020368
:100660009A4254D05823C4F202039A4254D14FF410
:10067000003359E01B0758BF10BD082303FA0EF3DF
:100680001A4012D00A6822F00E020A60012101FA13
:100690000EF2CCF80420816380F82110016B002257
:1006A000002980F8202018BF884710BD0823C4F215
:1006B00002039A4218D01C23C4F202039A4215D1B5
:1006C00040231BE00823C4F202039A4222D01C23D9
:1006D000C4F202039A421FD1202325E04FF4806325
:1006E0000CE04FF4804309E0042307E001F16804C3
:1006F0004FF08063A24208BF4FF480030B60C16AD1
:100700000029D2D0884710BD4FF400730CE04FF49D
:10071000005309E0022307E001F168044FF0007381
:10072000A24208BF4FF400130B60816A0022002927
:1007300080F82020B9D0884710BD0000014600286D
:100740004FF0010008BF70472DE9F043D1F800C019
:100750004FF6F873CBF6FD734CF6CD426344CCF6FE
:10076000CC42A3FB02236FF0030707EA93030027A1
:1007700001F10C09C4F20207D1E9012E99E87002D7
:10078000D1F81C80C1E90F73022381F82130DCF815
:10079000003043F6F077BB431A4342EA0E0222438D
:1007A0002A43324342EA090242EA0802CCF8002016
:1007B00000228A6381F8210081F820200020BDE812
:1007C000F043704710B5044690F82000012820D06F
:1007D000012084F8200094F82100012816D102207D
:1007E00084F821000020A063D4F800C0DCF80000E9
:1007F00020F00100CCF800002046FFF747FE2068FB
:10080000E26A01683AB141F00E010AE0002084F882
:100810002000022010BD21F004010160016841F0B8
:100820000A010160016841F001010160002010BD72
:100830002DE9F04F84B00E680290002E00F0038185
:1008400040F20C4E40F2004741F200420298C4F2DE
:10085000010EC4F20107C4F20102042300240125A1
:100860004FF0000A4FF00009904208BF03230093A5
:100870000AE000BF01250E680AF1010A36FA0AF201
:1008800004F1040400F0DF8005FA0AFB16EA0B0805
:10089000F1D04A684FF6FF73C1F210039A4211DC9F
:1008A000122A54D80298DFE802F0350A434753531E
:1008B00053535353535353535353534A4E00D1F846
:1008C0000C9045E04FF6FF73C1F221039A4210DC11
:1008D0000023C1F2110302989A421BD00023C1F2F7
:1008E00012039A4216D00023C1F221039A4211D07A
:1008F0002EE00023C1F2220302989A420AD000237C
:10090000C1F231039A4205D00023C1F232039A4268
:100910001ED100BF8A6842B1012A14BFC0F814B0CA
:10092000C0F810B04FF0080912E04FF004090FE0D2
:10093000CA6802F108090BE04FF0000908E0CA6834
:1009400002F1040904E0CA6802F10C0900E002980F
:1009500022460346B8F5807F24BF203A04331D6841
:100960004FF00F0C0CFA02F6B54309FA02F22A43D3
:100970001A60CA79D2067FF57DAF41F21803CDF82F
:100980000490C4F202031A68F34642F001021A60AE
:100990001A684FEA9A0E02F001020392039AA7F531
:1009A0007E72B94652F82E3004F00C0740F600066D
:1009B0000CFA07F5C4F20106B04223EA050C10D088
:1009C00040F60043C4F2010398420CD041F2000308
:1009D000C4F201039842009B4FF0010508BF0223B7
:1009E00003E0002300E001230125BB4043EA0C03A0
:1009F00042F82E304E684F46F202D9F8082054BF14
:100A000022EA080242EA0802DE46DDF80490BA60F3
:100A1000DEF80020B30254BF22EA080242EA0802CC
:100A2000CEF800207A68B30354BF22EA080242EAF3
:100A300008027A603A68F30354BF22EA080242EAE5
:100A400008023A6017E704B0BDE8F08F40F240605A
:100A5000C2F200000068704740F2090040F24061B5
:100A6000C2F20000C2F2000100780A681044086077
:100A70007047000080B542F20000C4F20200016835
:100A800041F010010160032000F066F80F2000F033
:100A900005F800F02BF8002080BD0000B0B540F252
:100AA0000902C2F2000240F200011278C2F2000113
:100AB0004FF47A730968B3FBF2F20446B1FBF2F12A
:100AC000084600F0E9FA0F2C4FF001050CD858B990
:100AD0004FF0FF3021460022002500F02DF840F2B3
:100AE0000C00C2F2000004602846B0BD82B041F2A2
:100AF0001800C4F202000168022241F00101016005
:100B0000016801F0010101910199416841F08051B2
:100B10004160406800F08050009000980420C4F2CA
:100B20000100016862F31A61016002B070470000C1
:100B300080B501F03BF980BD70B514460D46064600
:100B400001F044F92946224600F03CFE01463046B9
:100B500001F044F970BD000080B501F051F980BD8D
:100B60002DE9F04381B0002800F0878042F20008B0
:100B7000C4F202080446D8F800000D4600F0070051
:100B800088420CD2D8F8000020F007002843C8F8AB
:100B90000000D8F8000000F00700A8426DD12068DE
:100BA00041F204098107C4F2020917D5410705D5AE
:100BB000D9F8001041F4E061C9F80010010705D52B
:100BC000D9F8001041F46051C9F80010D9F80010AC
:100BD000A26821F0F0011143C9F80010C00745D107
:100BE000D8F8000000F00700A8420CD9D8F800009F
:100BF00020F007002843C8F80000D8F8000000F0F3
:100C00000700A84239D12068410707D5D9F800105C
:100C1000E26821F4E0611143C9F80010000708D52B
:100C2000D9F80000216920F4605040EAC100C9F8F9
:100C3000000000F077F8D9F8001043F28C02C1F3FD
:100C40000311C0F60002515C40F2000220FA01F1EB
:100C500040F20C00C2F200000068C2F20002116013
:100C6000FFF71CFF002001B0BDE8F0836068012899
:100C700007D159F8041C89030CD4012001B0BDE848
:100C8000F08359F8041C022802D18901F5D501E04E
:100C90008907F2D5D9F8001021F003010843C9F8FB
:100CA0000000FFF7D3FE064641F28837D9F800006E
:100CB000616800F00C00B0EB810F91D0FFF7C6FE29
:100CC000801BB842F2D9032001B0BDE8F0830000D8
:100CD00040F20000C2F200000068704780B5FFF7E4
:100CE000F7FF41F20401C4F20201096843F29C02D9
:100CF000C1F30221C0F60002515CC84080BD000073
:100D000080B5FFF7E5FF41F20401C4F20201096872
:100D100043F29C02C1F3C221C0F60002515CC840FC
:100D200080BD000041F2040CC4F2020CDCF800307B
:100D300003F00C00082841F20020C0F27A0018BF2E
:100D40007047C3F383420AA18A5CD90305D440F6F5
:100D50000010C0F23D0050437047DCF8001008A3BB
:100D6000C1F34041595C5043B0FBF1F0704700BF04
:100D700002030405060708090A0B0C0D0E0F1010DC
:100D8000010200002DE9F04182B0002800F0C4808B
:100D90000446007841F20006C007C4F2020643D0C0
:100DA000706800F00C00042817D0706800F00C0088
:100DB000082802D17068C0030FD465689DB1B5F5ED
:100DC000803F06D03068B5F5A02F0DD140F48020CB
:100DD0003060306840F480300CE03068800323D508
:100DE000606808BB98E0306820F48030306030687C
:100DF00020F480203060FFF729FE002D054610D03A
:100E00003068800310D4FFF721FE401B6428F7D917
:100E100008E100BFFFF71AFE401B64284FF00300F3
:100E200077D830688003F5D42078800718D57068AB
:100E300010F00C0F07D0706800F00C00082826D1C5
:100E40007068C00323D43068800702D52069012868
:100E500062D13068616920F0F80040EAC10030607A
:100E6000207800073DD5A06938B30020C4F24220A5
:100E70000121C0F88014FFF7E9FD0546706A80077C
:100E80002DD4FFF7E3FD401B0228F7D9CAE0206903
:100E9000002840F20000C4F2422000F09A800121B4
:100EA0000160FFF7D3FD054630688007D1D4FFF716
:100EB000CDFD401B0228F7D9B4E00020C4F2422047
:100EC0000021C0F88014FFF7C1FD0546706A800755
:100ED00007D5FFF7BBFD401B0228F7D9A2E000F0C1
:100EE00089FC207840071BD4E5698DB1706800F05B
:100EF0000C0008284CD1012D0ED07068216A00F436
:100F000080328A4208D1616A00F47010884203D1AD
:100F1000002002B0BDE8F081012002B0BDE8F08100
:100F2000F069C0000BD4F0694FF0010840F0805028
:100F3000F061F06900F080500190019801E04FF0FD
:100F4000000847F20007C4F200073868C00510D453
:100F5000386840F480703860FFF778FD054600BFC0
:100F60003868C00505D4FFF771FD401B6428F7D928
:100F700058E0E568002D3DD0012D05D0306A052DE3
:100F800039D140F004003062306A40F0010038E0AE
:100F90000027C4F2422700203866FFF757FD022DD4
:100FA00005460BD13068800154D5FFF74FFD401B3B
:100FB00002284FF00300F5D9ABE700BF306880018D
:100FC000A6D5FFF743FD401B02284FF00300F5D9DB
:100FD0009FE700210160FFF739FD05463068800773
:100FE0007FF53EAFFFF732FD401B02284FF00300B4
:100FF000F4D98EE7306A20F001003062306A20F0C8
:1010000004003062FFF722FD002D054641F28837CB
:1010100014D000BF306A800713D4FFF717FD401BC0
:10102000B842F7D9032002B0BDE8F081FFF70EFD0A
:10103000401BB8424FF003003FF66BAF306A8007A9
:10104000F4D4B8F1000F3FF44FAFF06920F08050B6
:10105000F06149E7206AB0F5803F05D17168A26868
:1010600021F40031114371607168626A21F47411D6
:1010700010430843706001203866FFF7E7FC044620
:10108000306880013FF544AFFFF7E0FC001B022809
:101090004FF00300F4D93CE780B500F0C3FB80BDFE
:1010A0007047000010B504460068406994F841108C
:1010B000212915D110F0800012D000BF206850E81F
:1010C000050F216820F0800041E80502002AF5D1D3
:1010D000A06B002818BFFFF7F7F9204600F0A4FC2A
:1010E0002068406994F84210222915D110F0400080
:1010F00012D000BF206850E8050F216820F04000A2
:1011000041E80502002AF5D1E06B002818BFFFF77F
:10111000DBF9204600F054FC002010BD70470000B1
:1011200070B582B0036804461868D9685D6900F03C
:101130002F02202A01F0200205D122B1204600F022
:1011400081FC02B070BD5FEA007C08D005F0010EA2
:1011500011F4907F8EF001054FD1002D4DD0226B00
:101160000840C1063FD5012A3DD1002001901868F2
:1011700001905868019001985869400600F19C80E0
:10118000A08DE18DE28D002A1CBF401A5FEA00416C
:1011900002D102B070BD00BF216851E8031F226870
:1011A00021F4907142E80313002BF5D1216851E836
:1011B000051F226821F0010142E80513002BF5D13B
:1011C000202184F842100021216300BF216851E8EA
:1011D000031F226821F0100142E80313002BF5D110
:1011E00002216163AEE0010600F1B2804006D0D575
:1011F000204600F00DFC02B070BDC30718BF11F40B
:10120000807303D0636C43F00103636400F0040651
:10121000012383EA96062E4303D1666C46F002064C
:10122000666400F0020683EA56032B4303D1636C25
:1012300043F00403636452EA0E0218BF0122BCF1BA
:10124000000F04D51AB1626C42F008026264626C4D
:10125000002A9ED00840800602D5204600F0F2FB0E
:1012600020684069616C00F0400001F008014018FE
:1012700078D0204600F0A4FB2068406940066CD579
:10128000206850E8050F216820F0400041E8050281
:10129000002AF5D1E06B00285FD041F6C101C0F60D
:1012A00000014163FFF730F900283FF472AFE06BB3
:1012B000416B884702B070BDE06B016849688AB233
:1012C000002A3FF466AFA38D9A42BFF462AFE18576
:1012D0008069202831D000BF206850E8030F2168C2
:1012E00020F4807041E80302002AF5D1206850E81C
:1012F000050F216820F0010041E80502002AF5D120
:10130000206850E8050F216820F0400041E8050200
:10131000002AF5D1202084F842000020206300BF7D
:10132000206850E8030F216820F0100041E8030214
:10133000002AF5D1E06BFFF7C7F802206063A08DAB
:10134000E18D401A81B22046FFF7AAFE02B070BDBF
:10135000204600F06FFC02B070BD2046FFF7DEFEB5
:1013600002B070BD2046FFF7D9FE0020606402B0D5
:1013700070BD0000002804BF0120704710B504466E
:1013800090F8410028B9002084F84000204600F081
:1013900021F8242084F841002068C16821F400511C
:1013A000C160204600F0B2FB2068016921F4904141
:1013B0000161416921F02A014161C16841F4005194
:1013C000C16000202021606484F8411084F842103C
:1013D000606310BD2DE9F04186B000260596CDE989
:1013E00003660446006844F20041C4F200018842EA
:1013F000029654D043F60001C4F20101884240F045
:10140000888041F21807C4F20207386840F60005E8
:1014100040F4804038603868C4F2010500F4804030
:101420000190019838680DF1080840F00400386018
:101430003868414600F00400019001984FF40070B4
:10144000029002200390032005902846FFF7F0F950
:101450004FF480600290002628464146CDE903669D
:10146000FFF7E6F940F25005A7F57C60C2F20005EF
:10147000802120224FF48053C5E900062846C5E9A3
:101480000261C5E90466C5E90623FFF757F900289C
:1014900018BFFFF713F8E5636C62252431E041F2D1
:1014A0001C00C4F20200016840F6000441F400315F
:1014B00001600068C4F2010400F40030019001985A
:1014C00041F21800C4F20200016802AD41F00401CB
:1014D00001600068294600F0040001900198042092
:1014E000029002200390032005902046FFF7A0F908
:1014F0000820CDE90206204629460496FFF798F910
:101500002624204600210022FFF716FB2046FFF785
:101510000FFB06B0BDE8F0812DE9F041044690F8DC
:10152000420020281CBF0220BDE8F0810E460029A1
:101530004FF0010049D01746002A08BFBDE8F081EE
:101540004FF0000822201D46C4F8448084F8420071
:10155000C4F83080FFF77AFAA785E785A1680746C7
:10156000B1F5805F10D12069002814BF3046B04625
:10157000064609E02068002640686FF35F2028F8DF
:10158000020BE08D0138E085E08DD0B120462021AE
:101590003A462B4600F078FBC8B9002EEAD0A06886
:1015A000B0F5805F08D008B9206928B1206840688C
:1015B00000F07F0002E000BF2068406806F8010BE1
:1015C000DFE7202084F842000020BDE8F0812020E1
:1015D00084F842000320BDE8F081000010B590F8C7
:1015E0004230202B1CBF022010BD00294FF0010407
:1015F00018BF002A01D1204610BD0024046300F06A
:10160000CDFA204610BD0000704700007047000072
:101610002DE9F041044690F8410020281CBF02202B
:10162000BDE8F0810E4600294FF0010042D0174678
:10163000002A08BFBDE8F0814FF0000821201D46B8
:10164000C4F8448084F84100FFF700FAA784E784D7
:10165000A1680746B1F5805F0DD12069002814BF4D
:101660003046B046064606E016F8010B2168486091
:10167000E08C0138E084E08C80B1204680213A463D
:101680002B4600F001FBB8B9002EEDD138F8020B63
:1016900021686FF35F2048600026E9E7204640217B
:1016A0003A462B4600F0F0FA202184F84110002839
:1016B00018BF0320BDE8F081202084F841000320FA
:1016C000BDE8F08170470000FEE7000080B582B001
:1016D00041F21400C4F202000168002241F001014D
:1016E00001600068002100F00100019001980F20C6
:1016F000FFF722FA0F20FFF71BFA02B080BD0000AF
:1017000082B041F21800C4F20200016841F02001E9
:101710000160016801F0200101910199016841F027
:1017200004010160006800F004000090009802B01D
:101730007047000010B540F2940443F60000C2F276
:101740000004C4F201004FF4E13100220C2384E8CC
:1017500007002046C4E90322C4E90532E261FFF72D
:1017600009FE68B920680022C16841F01001C1601B
:1017700025200021FFF7E0F92520FFF7D9F910BD5A
:10178000FEF79CFE80B540F2DC0044F20041C2F25C
:101790000000C4F2000100234FF00C0C4FF4E132C2
:1017A00080E80E00C0E90333C0E905C3C361FFF759
:1017B000E1FD002808BF80BDFEF780FEFEE70000C7
:1017C000FEE7000000F0070080F00703042B28BFAD
:1017D00004234FF0FF3C03380CFA03F338BF00201A
:1017E000994381400CFA00F022EA00000843704758
:1017F0007047000081B040F20000C2F200000068B3
:1018000044F6D351C1F26201A0FB0101480A0090E5
:1018100000BF0098411E00280091F9D101B0704727
:1018200070470000B0B501380024B4EB106F1CBF46
:101830000120B0BD4EF21005CEF2000568604FF0F9
:10184000FF300F2100F0CAFA0720AC602860204664
:10185000B0BD000080B5FFF7FFF880BD70B590B057
:1018600006AC20462821FEF776FC002501204FF427
:1018700080310690CDE907150A9002264FF4E0105A
:10188000CDE90D610F9020460595CDE90355CDE9D1
:101890000155FFF777FA78B90F20CDE901064FF42B
:1018A00080600395CDE9040501A80221FFF758F9EE
:1018B000002804BF10B070BDFEF700FE70470000A6
:1018C00080B5406A0021C185C184FFF727FC80BD37
:1018D00010B5446A2068406994F84110212907D165
:1018E00010F0800004D00020E084204600F09CF836
:1018F0002068406994F84210222907D110F0400076
:1019000004D00020E085204600F05AF8606C40F0DA
:10191000100060642046FFF701FC10BD80B501682F
:10192000406A096889062FD40021C185016851E801
:10193000031F026821F4807142E80313002BF5D1E4
:10194000016851E8051F026821F0010142E8051312
:10195000002BF5D1016851E8051F026821F0400114
:1019600042E80513002BF5D1202180F84210016BCD
:10197000012909D1016851E8031F026821F0100113
:1019800042E80313002BF5D100214163016B0129CB
:1019900003D1818DFFF784FB80BDFFF735FE80BD4D
:1019A00080B5406A01214163016B012904D1818D19
:1019B0004908FFF775FB80BDFFF728FE80BD0000DA
:1019C000016851E8031F026821F4907142E8031393
:1019D000002BF5D1016851E8051F026821F00101D3
:1019E00042E80513002BF5D1016B01290AD100BF94
:1019F000016851E8031F026821F0100142E8031357
:101A0000002BF5D1202180F842100021016370479E
:101A100080B50168CA6822F04002CA60202180F8BF
:101A20004110FFF74FFE80BD016851E8031F0268B7
:101A300021F0C00142E80313002BF5D1202180F8EA
:101A40004110704780B582B090F8421022291ED113
:101A50008268B2F5805F02D1016900294AD0816AAB
:101A6000B2F5805F07D00AB9026922B102685268F4
:101A700002F07F0201E0026852680A700121826A66
:101A800011448162C18D01390A04C18501D002B0BF
:101A900080BD0168CA6822F02002CA60CA6822F4C8
:101AA0008072CA604A6922F001024A61202180F8EE
:101AB000421000214163026B012A23D1016300BF60
:101AC000016851E8031F026821F0100142E8031386
:101AD000002BF5D101680A68D20606D500220192D2
:101AE0000A680192496801910199818DFFF7D8FA3E
:101AF00002B080BD0168826A49686FF35F2111807E
:101B00000221BCE7FFF780FD02B080BD10B504469E
:101B10000068D4E902C22369016921F440511143EC
:101B20000161616943EA0C021143C26841F20C632E
:101B30009A431143C1604169A26921F44071114384
:101B400043F60002C4F201029042416102D0FFF765
:101B5000C5F801E0FFF7D4F8626819214843910005
:101B6000B0FBF1F048F21F51C5F2EB11A0FB0123CD
:101B70005A096FF0630302FB0300322303EB0010EA
:101B8000A0FB0101F02303EA5113206803EB0212CA
:101B9000C1F343111144816010BD000070B582B0E3
:101BA000134600250446816283854564222084F81B
:101BB00042000A462168E06B41F61D1C41F6A11E59
:101BC00041F6D106C0F6000CC0F6000EC0F60006C5
:101BD0000431C0E90ACEC0E90C65FEF7F3FD0195BA
:101BE000206801680191406801900198206948B11E
:101BF000206850E8030F216840F4807041E8030238
:101C0000002AF5D1206850E8050F216840F0010056
:101C100041E80502002AF5D1206850E8050F216847
:101C200040F0400041E80502002AF5D1002002B052
:101C300070BD000090F84110212923D18168B1F5D1
:101C4000805F01D1016931B1016A02684B1C0362F6
:101C50000978516007E0016A036831F8022B6FF3DD
:101C60005F225A600162C18C01390A04C18418BF25
:101C700070470068C16821F08001C160C16841F00F
:101C80004001C160704700002DE9F04182B0044678
:101C9000006800680840884203D1002002B0BDE817
:101CA000F0811D460E4690465F1C04E020680068E7
:101CB0003040B04228D0002FF8D0FEF7C7FE0146D2
:101CC0004FF003000DB3A1EB0801A9421DD8206815
:101CD000C1684907EAD5402EE8D0802EE6D00168D9
:101CE0000907E3D50025019501680191406801903D
:101CF00001982046FFF764FE0820606484F8405095
:101D0000012002B0BDE8F081002002B0BDE8F08102
:101D100080B540F29400C2F2000000F001F880BDEE
:101D20002DE9F04182B040F29404C2F20004204652
:101D3000FFF7F6F920680168C90629D5002101914D
:101D4000016840F2940801914068C2F200080190D5
:101D500001984046FFF7A6F940F22411C2F20001B3
:101D6000D1E900E201F1080C40F230009CE8F810E3
:101D7000C2F20000E0E802E280E8F81040F244100D
:101D8000C2F200000122027040462022FFF726FC2A
:101D900002B0BDE8F081000080B540F2DC00C2F284
:101DA0000000FFF7BDF980BDFEE70000002848BF36
:101DB000704700F01F01012202FA01F14EF20012F9
:101DC0004009CEF2000242F8201070474EF60C5047
:101DD000CEF200000068C0F3022070474EF61453A4
:101DE00000F00F02CEF2000309011A4400F1604333
:101DF000B0F1FF3FC8BF03F56442117070470000A7
:101E00004EF60C51CEF200010A684FF6FF031A405D
:101E100060F30A2242F0806040F0FD700860704775
:101E200040F2D850C2F200008178013181707047D1
:101E3000022909D3CAB2024412F8012C22B901398D
:101E4000CAB2012AF6D80121C8B2704780B54FF452
:101E5000C8704FF07E5101F013F880BD0178202941
:101E600017D14178402914D1411E4FF0000C1E2398
:101E700011F8012F013B62441FFA82FCF8D1C08B9C
:101E80004FF6FF7181EA0C01401AB0FA80F0400968
:101E900070470020704700000A88504080EA001018
:101EA000C0B2030243EA1222030983EAC000504091
:101EB0000880704770B5002A08BF70BD14460546FB
:101EC0004E1E00BF16F8010F2946013CFFF7E4FF44
:101ED0002004F7D170BD000070B582B005460DF149
:101EE00006000C4600F010F854B16E1E0DF1060508
:101EF00016F8010F2946013CFFF7CEFF2004F7D169
:101F0000BDF8060002B070BD4FF6FF71018070474A
:101F100080B54FF4C870002100F0B2FF80BD000012
:101F2000FEF7A8FDFFF79AFCFFF7EAFBFFF7CEFBF1
:101F3000FFF700FCFFF726FC40F2940040F224116A
:101F4000C2F20000C2F200012022FFF747FB40F27C
:101F5000441740F230094FF00008C2F20007C2F205
:101F600000090026002402E0A81B322816D2FEF742
:101F70006DFD054600F03CFF387840B1484687F8D3
:101F80000080FFF76BFF10B1484600F029FE281BC8
:101F90006428E9D300F0A8FF2C46E5E700F0C8FF6D
:101FA0002E46E4E780B582B0DDE904CECDE900CE6F
:101FB00000F090F802B080BD2DE9F04F87B040F2FC
:101FC000D859C2F20009934699F80C200F4612F036
:101FD0000206044602D04FF0000A08E0D9F81000CB
:101FE00000281ABF007800F0010A4FF0000A6FF0D5
:101FF0000208002E4FF00A0518BF6FF0010818BF45
:10200000062584F802802EB9109904F10C00FFF720
:102010000FFF034699F806200DF1120C501C002109
:1020200089F806000CF10100E370E77184F808B04C
:1020300084F804A06171A2718DF812808DF81330BC
:1020400066B18DF81420E17AB4F809208DF8157086
:102050008DF816B042EA014105220FE08DF81620F6
:10206000B4F809208DF81510E17AADF8192009228D
:102070008DF814A08DF817708DF818B00CF80210B8
:10208000691E89B2FFF728FFE27804F10C0604AF5D
:10209000ADF8100038463146FFF70CFF119839466D
:1020A000FFF7FAFEBDF81000E278BAF1000FB05267
:1020B00020800CD0D9F81000B71804F58B71CDE949
:1020C00000620DF112022B46029700F05FFC07B090
:1020D000BDE8F08F80B582B0DDE904CECDE900CE59
:1020E000FFF76AFF02B080BD80B500F001F880BD47
:1020F0002DE9F04740F2D857C2F200078A46F97836
:102100001546064600201029387000F27D81022015
:10211000DFE811F0110011005100650074007D002E
:10212000880093009E00B100C000D700E9001001B4
:10213000190124002400FE2E00F03781FD2E40F00E
:1021400063810220F87040F24C10C2F200000021BE
:10215000C170397B867001F0FE0032E1787B40F27D
:102160004C18C2F20008A8EB0001013881F8236185
:102170000106787340F04881D7E9040100F04EFC75
:10218000064670B93869026B5AB198F80B00B8F876
:10219000091041EA004140F2D850C2F200009047D5
:1021A0000643F8780321002E18BF0121102808BF2C
:1021B00002213970E5E040F24C18C2F200084FF0FD
:1021C0000009304688F8036087F8049000F0F6FCB8
:1021D000387BC00740F0F9800320F87014E140F22A
:1021E0004C10C2F20000022E0671C0F0F380FFF71F
:1021F00017FE002038700120F87005E140F24C1005
:10220000C2F200004671304600F0D8FCDFE040F238
:102210004C10C2F200008671304600F0CFFC062060
:10222000F870F1E040F24C10C2F20000C671304686
:1022300000F0C4FC0720F870E6E040F24C10C2F257
:1022400000000672304600F0B9FC0820F870DBE0B0
:1022500040F24C18C2F20008002088F80B0030460B
:10226000A8F8096000F0AAFC387BC00740F0B880ED
:102270000920F870C8E040F24C10C2F2000030F8BB
:10228000091F41EA06210180304600F097FC0A2030
:10229000F870B9E040F24C14C2F2000434F8090FAF
:1022A000A178208040EA014141EA0641090C30460C
:1022B000A17000F083FC14F8060C002840F0938015
:1022C00094E0387940F24C14C2F20004411C2044DE
:1022D00006733046397100F071FC3879E178884234
:1022E00000F0848090E040F24C19C2F2000999F8A5
:1022F0000B00B9F8091041EA004000F0C1F80028CD
:102300007ED08046007900F059FC99F8000089F8E9
:102310001461397998F806200E23B04208BF0D23C6
:102320008A42FB7070D909EB01000C30511AFDF79D
:1023300012FF69E040F24C10C2F200004178022026
:10234000B14208BF012040F24C11C2F200010A79EB
:102350003870D20781F8156122D1386988B1026BD3
:1023600052B1C87AB1F8091041EA004140F2D850A0
:10237000C2F20000904720B9387802281CBF032021
:1023800038700120BAF1000FF8703DD040F24C11C6
:10239000C2F20001504640F22312FDF7C3FE33E0C3
:1023A000022826D11020F87027E00220F87040F2B1
:1023B0004C10C2F200000021C170397B867041F0E0
:1023C0000100387300F0E8FB1EE0A8F80490052037
:1023D000F87019E0304600F0F1FB0420F87013E0CB
:1023E00098F8030010B10B20F8700DE00C20F87085
:1023F0000AE00F20F870002038700D20787303E099
:102400000E20F87089F81461387801280DD140F257
:102410004C12C2F2000239899279002901F10101BE
:102420007A7104BF00227A813981BAF1000F06D097
:1024300040F24C11C2F20001C9788AF8031065B16C
:10244000B7F80310BA78A5F8031079793B7B01310E
:10245000697139896A8129812B730021BAF1000FD2
:10246000B9700BD0022818BFBDE8F08740F24C11BC
:10247000C2F20001B1F81411AAF80010BDE8F0870B
:10248000B0B543F2A40CE4230021C0F6000C4FF0D9
:10249000FF3E00BF99420CD2CA180132540804EB27
:1024A00044055CF82550854294BF21460EEB52034B
:1024B000F0D101EB41025CF822300021834208BFD9
:1024C0000CEB82010846B0BD10B582B08C460146C7
:1024D0000698DDE904E4D06000201061506190614D
:1024E000D0611062506282F82C00D0724C20A2F8A9
:1024F00009002120148582F82A3082F82BE09824E4
:1025000000901046624621230194FFF74BFD02B074
:1025100010BD000080B582B08C460146002040F618
:102520000603D06013610323D072A2F809000920CA
:1025300013754FF0320E0090104662460923CDF815
:1025400004E0FFF72FFD02B080BD0000B0B582B0FF
:102550008C460146DDE9080EDDE9064510820020C3
:102560009082A2F817005076C2F81A00C2F81E0036
:10257000C2F82200C2F82600D0724520A2F8090055
:102580001E209481D581A2F812E09375F325009066
:10259000104662460B230195FFF704FD02B0B0BD63
:1025A00080B582B08C460146DDE904E01374D0604A
:1025B0000020D0720B20A2F80900062082F811E05A
:1025C0004FF0590E0090104662460623CDF804E005
:1025D000FFF7E8FC02B080BD2DE9F0418F78CC78A0
:1025E0000D46FE2F064615D137707470A87905F197
:1025F0000C01B070E879F070287A3071687A7071E7
:102600000636EA783046FDF78DFDE8780827304435
:10261000002626E005F10C0840462146FFF708FC9D
:1026200037707070044628794146B0706879224648
:10263000F070A8793071E8797071287AB071687A91
:10264000F071A87A3072E87A70720A363046FDF777
:1026500069FD2979301901F00101494201F00D06A7
:102660000C2729780170697841702EB1023005F588
:102670008B713246FDF756FDB8192044BDE8F08154
:10268000B0B50546FFF730FD044600F0FE00022815
:1026900014D1FFF7C5FB40F2D850C2F2000000246D
:1026A0000121FD2D0470C17008D10221C17040F2DA
:1026B0004C10C2F20000C47000F06EFA2046B0BDAB
:1026C0002DE9F04FC9B000F1180CD0E90294D0E91F
:1026D00004E89CE8001C0790406A30230890D1E988
:1026E0000002099088680A92CA680B9008690C92E7
:1026F0004A69CDE90D02D1E90A201490486A139283
:102700001290C8690A6A1090C86B11928A69189071
:10271000886B0F920A6B496B179009A8CDE91521B8
:10272000021F00BF52F8040F013B976B51684FEA3C
:10273000F745566A85EA972585EA77474FEAB14516
:1027400085EAD105304485EAF11138440844106423
:10275000E8D14846204660465846089D504600222B
:10276000594640467646CDF818900594CDF800C0FD
:10277000CDF804B0CDF808A0CDF80C807046CDF8A7
:1027800010E000BF08464FEABA1181EAFA2181EA57
:102790007A61294400EA0A052CEA0A032B4319440A
:1027A00043F66033C0F6000353F8223009AD55F804
:1027B00022503746264619444FEAB903294483EA92
:1027C000793386EA0705E34683EAB95C05EA090539
:1027D00006EA07036B40D646634401324C4601EBE0
:1027E000080A03EB0109402A5D4684467146B84653
:1027F000C8D1059A049B2244009C3344039E00EBFD
:10280000040C089806993744029E019D0BEB0004C6
:10281000079849445644754400F1080E8EE88E002E
:10282000C0E90665C0E908C449B0BDE8F08F000002
:102830002DE9F04393B0076805463720A0EBD70099
:1028400000F03F090DF1040880200C468DF80400CB
:1028500008F10100472109EB0806FDF77CFC6968D7
:1028600038BAC6F8050008BAC6F8010009F109022D
:102870002846414600F03EF8E87A2070A87A607059
:10288000687AA070287AE070E87B2071A87B60717C
:1028900013B0BDE8F0830000B0B500214EF26762CE
:1028A000C6F609224AF685634FF2723C4FF23A5E51
:1028B000C0E9001100F10801CBF66733C3F66E4C96
:1028C000CAF24F5E45F27F2446F68C0581E80C5033
:1028D0004DF6AB114CF61952C5F20E14C9F605357A
:1028E000C1F68371C5F6E032C0E90645C0E90812B9
:1028F000B0BD00002DE9F04F91B005460068884654
:1029000000EBC20192468142296002D2696801311E
:102910006960BAF1000F35D001AFC0F3C50B05F106
:1029200028097C1C03E000BFBAF1000F2AD0CBF1CC
:102930004006B24538BF564609EB0B0041463246C9
:10294000FDF7F0FBB344B044BBF1400FAAEB060A1D
:10295000EAD10020291891F8282091F8293091F81F
:102960002B6091F82A103E54261821540430402838
:102970007370B270EED128463946FFF7A1FE4FF0D2
:10298000000BD1E711B0BDE8F08F00002DE9F04F4A
:102990009BB000283ED007460078C0073AD0787830
:1029A0000C460870D7E902010DF10409A4F80510DE
:1029B000C4F80100D7E90201DDF89880013041F147
:1029C0000001DDF894A0DDF890B0C7E902014846A7
:1029D0001D461646FFF760FF07F11001484620220A
:1029E000FFF788FF484631462A46FFF783FF4846EF
:1029F00059465246FFF77EFF484641460222FFF7FE
:102A000079FF484621460722FFF774FFE11D48463B
:102A1000FFF70EFF1BB0BDE8F08F0000002804BFD9
:102A2000012070472DE9F0479CB002AE8046304649
:102A30000D46FFF731FF08F1100130462022FFF765
:102A400059FF40F24C19C2F2000909F10201304667
:102A50000A22FFF74FFF99F8032009F10C013046D5
:102A6000FFF748FF09F58A71304602220224FFF77A
:102A700041FF09F58B7130460722FFF73BFF0DF14F
:102A8000020730463946FFF7D3FE09F21D113846DA
:102A90000622FDF76BFB28B1002088F834401CB0FB
:102AA000BDE8F08715B32F8899F816A1B9F81BC1B6
:102AB000D9F817E1EFB199F8074099F80810002606
:102AC000002205E02F880136BE4202F1010212D237
:102AD00006EBC6002844C3789C42F3D1037999429F
:102AE000F0D180788245EDD1324604E00020032405
:102AF000D3E700220026B8B291B2814204D10F2858
:102B000013D900200424C8E706EBC6002844B0F817
:102B10000910D0F805001FFA8CF2B0EB0E0071EB33
:102B200002001FD300200624B7E748F68051C0F208
:102B30005B01D8E902231FFA8CF011EB0E0140F182
:102B40000000891A984102D200200524A5E7B9F8AF
:102B5000070006EBC6012944A1F80300781C81F8A0
:102B600002A0288006EBC600B9F81B112844A0F883
:102B70000910D9F817110124C0F80510D8E902127C
:102B80001FFA8CF0B1EB0E0172EB000138BFC8E9FF
:102B900002E0012081E7000080B582B00020ADF89E
:102BA00006000DF10600FFF7AFF9BDF8060040F290
:102BB0004C11C2F20001088002B080BD10B582B095
:102BC00040F24C14C2F200042188ADF806100DF159
:102BD0000601FFF761F9BDF80600208002B010BDC4
:102BE0002DE9F04F81B040F214010022C2F2000141
:102BF00000EB42035B8821F8123001320E2AF7D134
:102C0000088840F23C62C2F2000210804F8840F215
:102C10003A62C2F2000217808D8840F23E62C2F230
:102C200000021580CC8840F24462C2F20002148097
:102C30000A8940F2100AC2F2000AAAF80020498963
:102C400040F21202C2F20002A0F2DC501180FDF745
:102C50008CFB0026C4F2FA363146FDF71EFB804697
:102C6000A7F2DC50FDF781FB3146FDF716FB8146EC
:102C7000A5F2DC50FDF779FB3146FDF70EFB8346EC
:102C8000A4F2DC50FDF771FB3146FDF706FB06466A
:102C900040464FF07E5100F0E5F90027CBF68077F3
:102CA000394600F0CBF9804648464FF07E5100F09F
:102CB000D9F9394600F0C2F9054658464FF07E5121
:102CC00000F0D0F9394600F0B9F9044630464FF02B
:102CD0007E5100F0C7F9394600F0B0F906462846A3
:102CE000002100F0ABF840F24811C2F20001088068
:102CF0004046002100F0A2F840F24A11C2F2000161
:102D000008802046012100F099F840F20401C2F247
:102D1000000108803046002100F090F840F2461192
:102D2000C2F20001088046F26661C3F66671284669
:102D3000FDF70DFBB0B940464FF03F41FDF7F9FA02
:102D400080B946F26661CBF666712046FDF7FFFA60
:102D500040B930464FF07C51FDF7F9FA10B1FFF75A
:102D600075F81DE046F26661C3F666712846FDF708
:102D7000EEFAA8B940464FF07C51FDF7CCFA78B98D
:102D800046F26661CBF666712046FDF7E0FA38B987
:102D900030464FF03F41FDF7CCFA08B9FFF7B8F8DD
:102DA000BAF80000B0F5E16F06D91520002100F057
:102DB00067F801B0BDE8F08F40F21200C2F20000E7
:102DC0000088C108AE2902D80120032106E080094D
:102DD00018284FF001008CBF01210621002200F0CD
:102DE000EDF801B0BDE8F08F090641EA00407047F8
:102DF0002DE9F041ADF5167D40F2DC000DF5A0782F
:102E0000C2F2000041464FF48C720A23FEF784FBA5
:102E100080B94FF0FF3707AD01AE40F2171400BF85
:102E200008EB0700407829463246FFF729FC0137B6
:102E3000A742F5D10DF5167DBDE8F08170B50C46C1
:102E40004FF07E5100F00EF90021CBF6807100F0BA
:102E5000F5F84FF07E510546FDF795F90021C4F2D3
:102E6000FA31FDF7E8F900210646C4F27A41284616
:102E7000FDF7E1F9002C18BF3046FDF77FFA70BD71
:102E8000B0B5ADF5127D8C4640F20601C2F20001EC
:102E900040F207050A7840F2386140F20803C2F2B6
:102EA0000005C2F20001C2F200032D7809781B78F8
:102EB00049ACCDE9005010462246CDF808C0FFF7D6
:102EC00003FB03AD28462146FFF786FB024640F28E
:102ED000DC00C2F2000029464FF0FF33FEF798FBFA
:102EE0000DF5127DB0BD0000B0B5ADF5107D40F21E
:102EF000060040F23861C2F20000C2F20001007820
:102F0000097847AC2246FFF705FB01AD284621466C
:102F1000FFF762FB024640F2DC00C2F200002946E5
:102F20004FF0FF33FEF774FB0DF5107DB0BD0000D0
:102F3000B0B5ADF5147D40F20802C2F2000213787C
:102F400040F2481240F24A1540F20404C2F2000274
:102F5000C2F20005C2F2000440F2060040F23861FD
:102F6000B2F900C0B5F90050B4F9004040F2461281
:102F7000C2F20000C2F20001C2F200020078097839
:102F8000B2F900E0CDE900C502944BAC2246CDF881
:102F90000CE0FFF7DBFA05AD28462146FFF71CFBE6
:102FA000024640F2DC00C2F2000029464FF0FF3337
:102FB000FEF72EFB0DF5147DB0BD0000B0B5ADF5EC
:102FC000127D054608461146FFF70EFF40F2060146
:102FD000C2F200010A7840F2386140F20803C2F2FE
:102FE0000001C2F2000309781B78009549AD044640
:102FF00010462A460194FFF7D3FA03AC204629462F
:10300000FFF7EAFA024640F2DC00C2F20000214675
:103010004FF0FF33FEF7FCFA0DF5127DB0BD02E074
:1030200008C8121F08C1002AFAD170477047002053
:1030300001E001C1121F002AFBD1704770B50C4698
:103040000546FDF7EBF900F07040B0F1005F07D0E6
:1030500024F00040C0F1FF40C00F04BF204670BD07
:10306000284670BD70B50C460546FDF7D7F900F04F
:103070007040B0F1004F07D024F00040C0F1FF4095
:10308000C00F04BF204670BD284670BD0000000080
:103090000000000001020304060708090000000008
:1030A00001020304000000003209090000000000D2
:1030B000010000007C1F2B00000000000200000047
:1030C000890C0C000000000004000000ED0E0E034F
:1030D0000C0D000005000000D91C1C0100000000C0
:1030E0000600000068030300000000000700000065
:1030F0007720200000000000080000007524240054
:10310000000000000B00000059060601040000004A
:1031100014000000D6141403020300001500000080
:103120009F0202030001000016000000DC191900D4
:103130000000000017000000A81717030405000096
:1031400018000000181E34000000000019000000E4
:1031500017656500000000001A000000AA1618009C
:10316000000000001B000000901A1D00000000007D
:103170001C00000043101000000000001D000000B3
:10318000730E1000000000001E000000271C1C0031
:10319000000000001F000000F620300000000000CA
:1031A00020000000B91C1C000000000021000000ED
:1031B000681C1C000000000022000000ED16160034
:1031C0000000000023000000F416160000000000BC
:1031D00024000000DE15250000000000250000008E
:1031E000D4060703040500002600000009060703B3
:1031F0000405000027000000FE2526032021000012
:1032000028000000E6040503020300002900000076
:103210001C040403020300002A0000001C02120028
:10322000000000002B0000008402030300010000E6
:103230002C000000DD040903020300002D00000043
:10324000E8020303000100002E0000000B02020050
:10325000000000002F000000990308030001000097
:1032600030000000290D15010C00000031000000A5
:10327000270C140000000000320000004E2525033A
:103280001213000033000000C40405030203000011
:10329000360000000F1B1B03181900003700000048
:1032A00003191900000000003D000000A748480075
:1032B000000000003E000000B71A1A0000000000E5
:1032C0003F00000077B5B50000000000400000009E
:1032D000BFE1E1000000000041000000762A2A0062
:1032E00000000000420000009406060302030000F4
:1032F0004300000015040400000000004500000029
:10330000F30B1E010A000000460000007C12260399
:10331000101100004900000026252603202100008E
:103320004A00000014141400000000004B000000CC
:103330009E2323031E1F00004C0000009821210340
:103340001E1F00004D0000008F030A030809000043
:10335000500000000E0404030203000051000000AE
:103360006A161600000000005200000031273303E7
:103370002425000053000000162525000000000051
:10338000540000008F353503323300005500000033
:103390008C33330000000000560000000535350373
:1033A0003233000057000000963333000000000065
:1033B00059000000E71C1C00000000005A0000003B
:1033C000B7383800000000005B0000003F2A2A00E8
:1033D000000000005C000000362121000000000019
:1033E0005D0000002F51510000000000640000004B
:1033F000AF1A220000000000650000006620750082
:1034000000000000660000009E2075000000000023
:1034100067000000D01439000000000068000000C0
:103420003820740000000000690000005D3E3F008D
:10343000000000006A0000008A2C2C000000000040
:103440006B0000006C404100000000006C000000B8
:1034500020545C00000000006D000000B909090064
:10346000000000006E00000054FEFE030102000098
:103470006F00000022101203101100007000000005
:10348000AE0C0C0000000000710000007C2427003E
:103490000000000072000000ED2C2C000000000075
:1034A00073000000044040000000000074000000B1
:1034B0004C1618000000000075000000800606038E
:1034C0000405000076000000380E0E000000000029
:1034D00077000000740C0C030A0B00007800000059
:1034E000866161000000000079000000ED02020327
:1034F000000100007A000000CB020203000100007E
:103500007B000000FA717103000100007C000000E4
:1035100057233900000000007D000000CB060600A4
:10352000000000007E000000DC4F51034F500000FF
:103530007F0000001923230000000000800000002D
:10354000E223230000000000810000002E16180076
:1035500000000000820000001D0D0D0000000000B2
:1035600083000000DFFFFF00000000008400000077
:10357000550E270000000000850000000612120012
:103580000000000086000000E52B2B00000000007A
:1035900087000000CB080800000000008800000041
:1035A000011616000000000089000000C30E100084
:1035B000000000008A0000006D2478000000000078
:1035C0008B000000A82B2B03292A00008C00000090
:1035D000B5292900000000008D0000002F202000E8
:1035E000000000008E00000048F3F300000000001F
:1035F0008F000000830E100000000000900000000B
:103600007F5D5D00000000009200000067646400C0
:1036100000000000930000009A2436000000000023
:1036200094000000B23C4E00000000009500000035
:10363000C81E3C0000000000A2000000BD080900F8
:1036400000000000C0000000242C36000000000034
:10365000E1000000D041490000000000E600000049
:10366000A32A2A0000000000E700000069282800C3
:1036700000000000E8000000973F4100000000004B
:10368000E900000023B6B60000000000EA000000D8
:103690009628280000000000EB000000B32A2A0052
:1036A00000000000F10000005A202000000000008F
:1036B000F200000068343C0000000000F30000004D
:1036C00055353D0134000000F40000005F0606009F
:1036D00000000000F500000082020200000000006F
:1036E000F6000000B826260000000000F7000000E9
:1036F0005113130000000000F800000008FEFE0354
:1037000003040000F9000000CC24240000000000A5
:10371000FA000000311E1E0000000000FB00000047
:10372000AA12120000000000FC0000002C1212007F
:1037300000000000FD0000005333360000000000D0
:10374000FE0000002E09090000000000000100003A
:10375000472A2A0308090000010100008309090023
:103760000000000002010000BB20E803000100008F
:10377000030100005CEBED0000000000040100000C
:1037800092050E000000000005010000B31B3D0083
:1037900000000000060100000C12170000000000ED
:1037A0000701000085FFFF00000000000801000085
:1037B000311C200000000000090100001A10140054
:1037C000000000000A010000C1FFFF030203000027
:1037D0000B01000023FFFF03020300000C010000A7
:1037E0000E040403020300000D0100006DD5D70094
:1037F000000000000E0100003B1314000000000058
:103800000F01000016343500000000001301000015
:103810007E1F200000000000140100001231320061
:1038200000000000150100003E1E1E000000000008
:1038300018010000462121000000000019010000CD
:10384000300D0D00000000001A0100007B2323034F
:10385000202100001B0100004A90910000000000A0
:103860001C010000632020031E1F00001D0100003A
:1038700089283103262700001E010000D2353903B4
:10388000323300001F010000011717031415000058
:103890002001000014171703141500002201000076
:1038A000FB2E2E0000000000230100000A39390021
:1038B000000000002B010000136062000000000007
:1038C0002C010000D9161600000000002D01000098
:1038D000F33A3A0000000000360100001C1111000C
:1038E00000000000370100005F7474000000000059
:1038F00040010000F3141403020300004101000022
:10390000580202030001000042010000F3959500F7
:1039100000000000430100004E93930300010000EB
:103920004401000084929200000000004A0100005F
:10393000179EA700000000004B0100005BE6E900B5
:10394000000000004C010000ECEFEF000000000060
:103950004D010000E76D6D00000000004E01000009
:10396000480A0A00000000004F010000E11818009A
:103970000000000050010000F55454000000000059
:1039800053010000C70505000000000054010000BD
:1039900063464600000000005E010000E814FC00E1
:1039A00000000000680100000B1919000000000071
:1039B000720100004B576D00000000007301000011
:1039C0000A1A1A0000000000740100001A8C8C0012
:1039D0000000000075010000752A2A0000000000A8
:1039E00077010000FB8C8C00000000007C010000CF
:1039F000E814140000000000810100009385850395
:103A0000020300008201000084101003040500007E
:103A100083010000044848030405000084010000FD
:103A20000825250320210000860100009CEEEE0001
:103A3000000000008B01000000D4D4000000000052
:103A40008C01000032A0A000000000008D010000E9
:103A5000B66C6C0000000000900100006EFEFE03DA
:103A60000405000091010000B706060304050000EC
:103A70009A010000A0353500000000009B01000005
:103A80006A030300000000009C01000021060603F9
:103A9000040500009D0100004D0707030405000018
:103AA000B3010000862E2E0000000000B4010000CB
:103AB000C109090000000000B50100001E0101005D
:103AC00000000000B80100004223230000000000B5
:103AD0002823000071898900000000002D230000C8
:103AE000752222000000000064320000722C2C03BA
:103AF0000001000065320000FE3B3B031E1F00007A
:103B0000663200008C353503040500006732000082
:103B1000F92E2E0300010000683200004D363603F6
:103B20001C1D000069320000312B2B030001000036
:103B3000733200005EF9F9030001000076320000E4
:103B40008B333300000000007732000007121203AD
:103B5000101100007832000014050500000000007C
:103B6000982F8A4291443771CFFBC0B5A5DBB5E9E8
:103B70005BC25639F111F159A4823F92D55E1CAB5C
:103B800098AA07D8015B8312BE853124C37D0C55EA
:103B9000745DBE72FEB1DE80A706DC9B74F19BC132
:103BA000C1699BE48647BEEFC69DC10FCCA10C2422
:103BB0006F2CE92DAA84744ADCA9B05CDA88F97606
:103BC00052513E986DC631A8C82703B0C77F59BF70
:103BD000F30BE0C64791A7D55163CA06672929149C
:103BE000850AB72738211B2EFC6D2C4D130D385339
:103BF00054730A65BB0A6A762EC9C281852C7292FB
:103C0000A1E8BFA24B661AA8708B4BC2A3516CC728
:103C100019E892D1240699D685350EF470A06A1061
:103C200016C1A419086C371E4C774827B5BCB034B0
:103C3000B30C1C394AAAD84E4FCA9C5BF36F2E684E
:103C4000EE828F746F63A5781478C8840802C78CDD
:103C5000FAFFBE90EB6C50A4F7A3F9BEF27871C6E0
:103C6000803C000800000020100000001E3000080A
:103C7000903C000810000020380A00002E30000898
:103C800000127A00F401FF010101000010000000A1
:04000005080000ED02
:00000001FF
